{
  "contractName": "Test",
  "abi": [
    {
      "constant": false,
      "inputs": [],
      "name": "sayHi",
      "outputs": [
        {
          "name": "",
          "type": "string"
        }
      ],
      "payable": false,
      "stateMutability": "nonpayable",
      "type": "function"
    }
  ],
  "bytecode": "0x608060405234801561001057600080fd5b5061013f806100206000396000f300608060405260043610610041576000357c0100000000000000000000000000000000000000000000000000000000900463ffffffff1680630c49c36c14610046575b600080fd5b34801561005257600080fd5b5061005b6100d6565b6040518080602001828103825283818151815260200191508051906020019080838360005b8381101561009b578082015181840152602081019050610080565b50505050905090810190601f1680156100c85780820380516001836020036101000a031916815260200191505b509250505060405180910390f35b60606040805190810160405280600d81526020017f48692057616e677a756b756e21000000000000000000000000000000000000008152509050905600a165627a7a72305820e8d9de70211525fb12dd0c68ff828da56efcab5633265970cc8fb8ca8cd42e410029",
  "source": "pragma solidity ^0.4.17;\r\n\r\ncontract Test{\r\n    function sayHi() returns (string){\r\n        return \"Hi Wangzukun!\";\r\n    }\r\n}",
  "sourcePath": "D:\\code\\truffle_demo\\contracts\\Test.sol",
  "compiler": {
    "name": "solc",
    "version": "0.4.24+commit.e67f0147.Emscripten.clang"
  },
  "schemaVersion": "2.0.1",
  "updatedAt": "2018-11-02T02:13:00.765Z"
}